:100000000AC018951895189518951895189518956B
:100010001895189518958FED8DBFC8EBE0EA4E2E18
:10002000DD275D2EEEE7F0E0A0E6B0E088278D93B7
:100030003197E9F7662480E081BB8FEF87BB8EE1C3
:1000400081BD86E081BD85E190E0A1E68D939C9322
:1000500080E090E0A3E68D939C9380E090E0A5E69D
:100060008D939C9380E090E0A9E68D939C9380E033
:1000700090E0A7E68D939C9380E090E0ABE68D93B3
:100080009C9380E090E0ADE68D939C9370E078BB0C
:1000900081E08093600000916000043110F009F06D
:1000A00011C088B394E0892788BB88B398E089277A
:1000B00088BB88EC90E06BD2A0E68C918F5F8C932C
:1000C00008F4E9CF70E078BB88EE93E060D281B5A8
:1000D000886081BDC09A819B78C1809905C085E107
:1000E00090E0A3E68D939C93A3E60D911C910030C4
:1000F00050E0150714F009F001C008C0A3E60D9107
:100100001C9101501040A3E60D931C93A3E60D91A2
:100110001C91013050E0150780E014F009F081E0F7
:100120008F93A5E60D911C91003050E0150781E0FA
:1001300009F080E09F9189238F93A8E30C9100FB45
:1001400081E00EF080E09F918923882309F405C0A7
:1001500089EC90E0A5E68D939C93A5E60D911C910A
:10016000003050E0150714F009F001C002C0A5E608
:10017000FED1A3E60D911C91003050E0150781E0FF
:1001800009F080E08F93A5E60D911C91003050E0BE
:10019000150781E009F480E09F918923882309F401
:1001A00005C080E090E0A5E68D939C93A5E60D91B7
:1001B0001C91053050E0150780E014F009F081E053
:1001C0008F93A7E60D911C91003050E0150781E058
:1001D00009F080E09F918923882309F405C083E01A
:1001E00090E0A7E68D939C93A5E60D911C910130BC
:1001F00050E0150781E009F080E08F93A3E60D91B0
:100200001C91013050E0150780E014F009F081E006
:100210009F918923882309F406C0C09880E090E06C
:10022000A5E68D939C93A3E60D911C91003050E0C0
:10023000150781E009F080E08F93A9E60D911C91EC
:10024000003050E0150781E009F080E09F9189239C
:100250008F93A8E30C9100FB81E00EF480E09F9166
:100260008923882309F405C085E893E0A9E68D93E6
:100270009C93A9E60D911C91003050E0150714F0F5
:1002800009F001C002C0A9E672D1A3E60D911C914C
:10029000003050E0150780E014F009F081E08F9302
:1002A000A7E60D911C91003050E0150781E009F0A0
:1002B00080E09F918923882309F405C082E390E0C0
:1002C000A7E68D939C93A9E60D911C91083C50E004
:1002D000150780E014F009F081E08F93A7E60D91F7
:1002E0001C91003050E0150781E009F080E09F91FB
:1002F0008923882309F405C08FE090E0A7E68D9359
:100300009C93A9E60D911C91083C50E0150780E0F4
:100310000CF481E08F93A9E60D911C91003050E020
:10032000150780E014F009F081E09F9189238F93F5
:10033000A7E60D911C91003050E0150781E009F00F
:1003400080E09F918923882309F405C08AE090E02A
:10035000A7E68D939C93A9E60D911C91013050E086
:10036000150709F001C0C09AA7E60D911C91003055
:1003700050E0150714F009F001C008C0A7E60D9180
:100380001C9101501040A7E60D931C93A7E60D9118
:100390001C910A3050E0150709F002C0C29AC39AB6
:1003A000A7E60D911C91023050E0150709F002C03C
:1003B000C29AC39AA7E60D911C91013050E015072F
:1003C00009F002C0C298C39822C0C09880E090E0B3
:1003D000A5E68D939C9384E690E0A9E68D939C938B
:1003E00080E090E0A7E68D939C9380E090E0A3E608
:1003F0008D939C93ABE60D911C91003050E0150756
:1004000009F005C082E390E0ABE68D939C93ABE6E8
:100410000D911C91003050E0150714F009F001C057
:1004200008C0ABE60D911C9101501040ABE60D9356
:100430001C93ABE60D911C910B3050E0150709F0B1
:1004400001C0C39AABE60D911C91013050E0150735
:1004500009F001C0C398A8E38C9180FB80F98095D6
:1004600080FBA8E38C9181F98C93A0E30C9102FBB3
:1004700081E00EF480E08F93ADE60D911C91003089
:1004800050E0150781E009F080E09F9189238823DF
:1004900009F405C088E293E2ADE68D939C93A0E356
:1004A0000C9102FB81E00EF480E08F93ADE60D919C
:1004B0001C910F3053E2150780E00CF481E09F910E
:1004C0008923882309F405C08FE090E0ADE68D9381
:1004D0009C93ADE60D911C91003050E0150714F08F
:1004E00009F001C003C0ADE642D0C49AADE60D915B
:1004F0001C91003050E0150709F001C0C498A1E636
:100500000D911C91003050E0150714F009F001C066
:1005100008C0A1E60D911C9101501040A1E60D9379
:100520001C93A1E60D911C91063050E0150709F0CF
:1005300001C0C59AA1E60D911C91013050E015074C
:1005400009F001C0C598A1E60D911C91003050E062
:10055000150709F005C085E190E0A1E68D939C9315
:10056000A89584E690E013D0B6CDF894FFCFED9136
:10057000FC91E150F040FC93EE9308953197F1F730
:100580000895689462F80895E89462F80895EF93E6
:10059000FF93EE27E82BE92B31F0E8EEF3E03197FB
:0C05A000F1F70197D1F7FF91EF9108955A
:00000001FF
